:100000000C9460110C9488110C9488110C94881134
:100010000C9488110C9488110C9488110C948811FC
:100020000C9488110C9488110C94691D0C94D81DA3
:100030000C9488110C9488110C9488110C948811DC
:100040000C9488110C9488110C9488110C948811CC
:100050000C9488110C9488110C9488110C940A202B
:100060000C9488110C9488110C9488110C948811AC
:100070000C9488110C9488110C9488110C9488119C
:100080000C9454200C9488110C9488110C948811B1
:100090000C9488110C9488110C9488110C9488117C
:1000A0000C9488110C9488110C9488111010000085
:1000B000000000000080008000C080C000C080C040
:1000C00000C00080000000000000000000000000F0
:1000D0000000003E14FFBDFFBEFF37FF57FF57FF74
:1000E0005FFF56FF94FF10FE003800000000000084
:1000F0000000000000C080C000E0C0E080E0C0E080
:1001000080E000C00080000000000000000000004F
:100110000000001F0A3F1EFFBFFFBBFF2BFF2BFF8E
:10012000AFFFABFF0AFF081F001C0000000000002B
:10013000000000C080C000F0A0F0C0F0C0E000E00F
:10014000C0E0C0E080E000C000000000000000004F
:10015000001F0A7F20FF8FFFBDFF3DFF47FF43EFDA
:1001600041E740E380E100C1000000000000000022
:100170000000000000000000008000C080C000C03F
:1001800080C000C00080008000000000000000006F
:100190000000003810FE94FF56FF5FFF57FF57FF27
:1001A00037FFBEFFBDFF14FF003E0000000000004F
:1001B000000000000000008000C080E0C0E080E09F
:1001C000C0E000E080C000C00000000000000000AF
:1001D0000000001C081F0AFFABFFAFFF2BFF2BFF27
:1001E000BBFFBFFF1EFF0A3F001F00000000000012
:1001F0000000000000C080E0C0E0C0E000E0C0E01F
:10020000C0F0A0F000F080C000C0000000000000BE
:100210000000000000C180E140E341E743EF47FFF9
:100220003DFFBDFF8FFF20FF0A7F001F0000101061
:100230000000000000C080C080C000C080C080E01E
:10024000C0F0E0F0A0F000F000C080C000C00000EE
:100250000000000000030107031F0F3F1F3F1C3F6A
:100260001D3F1B3F193F0C3F031F01070003000008
:10027000000000000000000000C080E0C0E040F08E
:10028000E0F8F0F8D0F800F800C00000000000002E
:1002900000000000001E0C1F0E1F071F0F1F0E1F67
:1002A0000E1F0D1F0C1F061F061F0C1F001E000037
:1002B000000000000000000000C080E040E040F0CE
:1002C000E0F8F0F8B0F800F80000000000000000CE
:1002D00000000000001E0C1F06FF4FFF77FF32FFDB
:1002E0001C7F1F3F0F3F001F0000000000000000A8
:1002F000000000C080C000C000F0A0F0E0F0C0F03E
:1003000080E080C000C080C080C000C0000000004D
:10031000000000030107031F0C3F193F1B3F1D3F57
:100320001C3F1F3F0F3F031F010700030000000099
:1003300000000000000000C000F8D0F8F0F8E0F87D
:1003400040F0C0E080E000C00000000000000000BD
:100350000000001E0C1F061F061F0C1F0D1F0E1F86
:100360000E1F0F1F071F0E1F0C1F001E0000000096
:10037000000000000000000000F8B0F8F0F8E0F81D
:1003800040F040E080E000C00000000000000000FD
:100390000000000000000000001F0F3F1F3F1C7FF7
:1003A00032FF77FF4FFF06FF0C1F001E000000000A
:1003B000101000000000000000000000000000001D
:1003C000000000000000000000000000000000002D
:1003D0000000000000000000007C38FE7CFE6CFF86
:1003E00076FF6EFF7EFF6CFF74FE28FE007C00002F
:1003F000000000000000000000000080008000C03D
:1004000080C080C000C000800080000000000000AC
:100410000000000000000000007F3EFF7FFF77FF2C
:100420007BFF77FF7FFF77FF3AFF007F0000000030
:10043000000000F060F060F000F00080008000F04C
:1004400020F000F00080000000000000000000002C
:10045000000000000000001F0E7F3FFF7FFF7BFFBA
:1004600077FF7FFF76FF3AFF1C7F003E0000000011
:10047000000000000000000000000000000000007C
:10048000000000000000000000000000000000006C
:10049000000000000000007C28FE74FE6CFF7EFF60
:1004A0006EFF76FF6CFF7CFE38FE007C00000000D3
:1004B000000000000000000000000080008000C07C
:1004C00080C080C000C000800080000000000000EC
:1004D0000000000000000000007F3AFF77FF7FFF70
:1004E00077FF7BFF77FF7FFF3EFF007F000000006C
:1004F000000000000000000000000000000000807C
:1005000000F020F000F00080008000F060F060F06B
:1005100000F0000000000000003E1C7F3AFF76FF64
:100520007FFF77FF7BFF7FFF3FFF0E7F001F0000F5
:10053000000010100000000000000000000000801B
:1005400000C080C000C000C080C000C0000000002B
:1005500000000000000000000000002800FFD6FF9F
:10056000D7FFDFFF26FFBFFFA7FF1CFF003C0028CF
:10057000000000000000000000000000000000007B
:10058000008000800080008000800080000000006B
:100590000000000000000000000000F0C0FECCFFE2
:1005A000CEFFBFFF4CFF7EFF4FFF38FF80F800D02B
:1005B00000000000000000000000000000E0E0F08B
:1005C000C0F080E000E0C0F080E000C0000000006B
:1005D0000000000000000000006060F460FF6BFF9E
:1005E0000BFF1D3F1B3F1FFF5BFF4CFF60FE0074B6
:1005F00000000000000000000000000000C080C0FB
:1006000000C000C080C000C00080000000000000EA
:1006100000000000000000000028003C1CFFA7FFB5
:10062000BFFF26FFDFFFD7FFD6FF00FF0028000037
:1006300000000000000000000000000000800080BA
:1006400000800080008000800000000000000000AA
:10065000000000000000000000D080F838FF4FFFCD
:100660007EFF4CFFBFFFCEFFCCFFC0FE00F00000BE
:1006700000000000000000000000000000C080E05A
:10068000C0F000E080E0C0F0E0F000E0000000001A
:100690000000000000000000007460FE4CFF5BFFE3
:1006A0001FFF1B3F1D3F0BFF6BFF60FF60F40060EF
:1006B00000000000D5F08D14A1C881CFD9F1AF2082
:1006C00000101000000000000000F0E0F8F0FCF85E
:1006D000FC08FC08FCF8FCF0FCE0F800F00000006E
:1006E00000000000000000000000030107030F07E6
:1006F0007F2D7F2D7F077F030F0107000300000080
:1007000000000010100000000000000000000000C9
:1007100080008000C080C080C080C00080000000D9
:10072000000000000000000000007830FE98FFBAD2
:10073000FF33FF73FF6AFFA2FF91FF20FF007000ED
:1007400000000000000000000000000000000000A9
:1007500080008000C080C080C000C0000000000099
:10076000000000000000000000007830FE98FFB29A
:10077000FF33FF6BFF12FF61FF6CFF007E00000084
:1007800000000000000000000000000000008000E9
:10079000C080C080E040E040E080E000C000000099
:1007A000000000000000000000003C183F0CFF9D0E
:1007B000FFB9FF39FF35FF91FF08FF103F003800F8
:1007C0000000000000000000000000000000000029
:1007D00080008000C000C080C080C000C0008000D9
:1007E0000000000000000000000000007E3C7F0CC4
:1007F000FFDBFFD3FFD3FF2AFF007F217F007100C3
:100800000000000000000000000000000000C00028
:10081000E040F060F060F020F040F000E000000008
:10082000000000000000000000001E0CFF66FF6FCB
:10083000FF1EFF5EFF1D7F0C3F061F081F001C00F0
:100840000000000000000000800080008000C00068
:10085000E040F060F060F020F040F000E000800048
:10086000800000000000000003010703EF66FF6F37
:10087000FF1EFF5EFF1D7F0C3F061F020F010700DA
:100880000300000000000000000000008000F0A055
:10089000F0E0F0C0F0C0E080E000C00080000000A8
:1008A0000000000000000000000000001F0D3F1DC0
:1008B0003F193F193F153F113F093F001F0000003E
:1008C0000000000000000000000000000000000028
:1008D0000000000000000000000000000000000018
:1008E00000000000000000000000E0C0FCC8FE2C7A
:1008F000FF4EFFCEFFCEFF4EFF0AFFC4FF00EE000B
:1009000000000000000000000000000000008080E7
:10091000C080C080C000C0008000800000000000D7
:100920000000000000000000000000007020FF91A7
:10093000FFA2FF6AFF73FF33FFBAFF98FF30FE008C
:10094000780000000000000000000000000000002F
:10095000C080C080C000C000800080000000000097
:1009600000000000000000000000000000007E6C9D
:10097000FF61FF12FF6BFF33FFB2FF98FF30FE00F5
:100980007800000000000000000000000000C080AF
:10099000E040E040E080E080C000C0008000000057
:1009A00000000000000000000000000038103F08B8
:1009B000FF91FF35FF39FFB9FF9DFF0CFF183F0086
:1009C0003C00000000000000000000008000C0802B
:1009D000C080C000C000C000800080000000000097
:1009E00000000000000000000000000071217F00F6
:1009F0007F2AFFD3FFD3FFDBFF0CFF3C7F007E008D
:100A00000000000000000000000000000000E040C6
:100A1000F020F060F060F040F000E000C000000066
:100A20000000000000000000000000001C081F067D
:100A30001F0C3F1D7F5EFF1EFF6FFF66FF0CFF0058
:100A40001E00000000000000000080008000E04068
:100A5000F020F060F060F040F000E000C0008000A6
:100A600080008000000000000000030107020F0664
:100A70001F0C3F1D7F5EFF1EFF6FFF66FF03EF0130
:100A800007000300000000000000000000008000DC
:100A9000C080E0C0E0C0F0E0F0A0F000F000800016
:100AA00000000000000000000000000000001F091E
:100AB0003F113F153F193F193F1D3F0D3F001F00DC
:100AC0000000000000000000000000000000000026
:100AD0000000000000000000000000000000000016
:100AE000000000000000000000000000EEC4FF0A4B
:100AF000FF4EFFCEFFCEFF4EFF2CFFC8FEC0FC0016
:100B0000E000000000C4801A00A5801A00C4801A0A
:100B10000006811A0088811A0093821A0017841A2D
:100B20000020861A0000803F8311002A820D0000F9
:100B3000000300B8810E000000030088810D000052
:100B40000003005D810E000000030015810D000010
:100B5000000300D0800E00008093820D00E4820D1F
:100B60000010830D000080BA821A0017841A00005A
:100B7000809C800D0070830D00D0800D00DC800D06
:100B80000006810D0026810D0017840D00008008ED
:100B900008001C083C10FE5CFF3AFF087F103C0078
:100BA000381808007F3E7F0A7F021F007F3E7F20AB
:100BB0007F007F0E7F387F0E7F007F3E7F2A7F364B
:100BC0007F007F3E7F227F3E7F007F0E7F387F0E3B
:100BD0007F001F180800000007027F3E7F027F0091
:100BE0007F3E7F227F3E7F007F3E7F32FF7EFF4041
:100BF000FF3EFF207F3E7F007F3E7F2A7F227F00D7
:100C000077000000008B800400498704007D860483
:100C100000E98004008B800400B881040000000417
:100C2000000B8204008B8004008881040000801087
:100C30001000000000008000E040F0E0F8F0F8F064
:100C4000F8F0F8E0F8C0F000E000800000000000DC
:100C5000000000001F0A3F0F7F287F20FF6EFF6803
:100C6000FF6EFF00FF1E7F0A7F0E3F001F00000087
:100C70000010100000000000000000000000000054
:100C80000000000000000000800080000000000064
:100C900000000000000000000000E040F850FC48A8
:100CA000FC50FE5CFE40FF5BFF43FF00E3000000E2
:100CB0000000001010000000C0E0003030303000B4
:100CC000E0C0000000000000FFFC00FCFCFCE400B1
:100CD000C8E7000000000000C060303060C00000C5
:100CE0000000000000000000FF00FCE400CB00005A
:100CF0000000000000D2814000000040000B824054
:100D00000000004000D28140000000C0000B82C003
:100D100000000040008881400000004000888140C1
:100D20000000004000888140000000C0005D81405C
:100D3000000000C000D2814000000040000B824053
:100D400000008049870600A580060093820600A562
:100D500080060093820600A58006004B820600AF45
:100D600080060000002600498706003F830600C871
:100D70008506003F830600C88506003F830600C83D
:100D8000850600E48206000080080800182C5E5EDC
:100D90003C180008080000113366440000DD84366A
:100DA00000000036007585360000003600498736A1
:100DB0000000003600208636000000A3007D863645
:100DC000000080DD844000000040001784400000E7
:100DD000004000A48340000000C0001083400000D9
:100DE00000C000BA8240000000C0000B824000003A
:100DF0000040006E82400000004000108340000070
:100E000000C000BA8240000080101000C0C000E0A6
:100E1000F0F800E070D0901030E00000030300070D
:100E20000F1F00070C08090B0E0700101000C0C0B0
:100E300000E0F0F80020C40830C000000000030308
:100E400000070F1F000423100C030000001810F807
:100E50000E0301F191F1010306FC00E02020203C8B
:100E60000404043C2020E07F40404078087F40405C
:100E7000407F00030202021E1010101E02020338FF
:100E80001000FC06F3F9FD1DDDDDDDF9F386DCC89D
:100E9000E8E8E8E8C8D89808E8E8E80808E8E8EFEB
:100EA00001FDFDFD013F90D8C868686868C8D89FFB
:100EB00001FDFDFDE1EF08F80000FF8097979780A6
:100EC000FB0B0B197047D7979590909597D7476074
:100ED000C7979790909797C78097979780E047D745
:100EE000979093939393C37B60C797979480FE03E7
:100EF0000038280000000000000000000000000092
:100F0000000080C0406020B098080C060301010179
:100F10000101010101070CF8C06020A0A020604081
:100F2000C08000000000000000000000F80C64F425
:100F3000F4F4F4E4ECE8ECE4E6F3F9FCFEFFFFFF84
:100F4000FFF8F8F0F0E0E0E0E0E0E0E0E0F8F87D65
:100F50007872C71F7F7F1FC6701F0000000000004F
:100F600000000000010302060C193367CF9F3F7F8A
:100F7000FFFFFFFFFFFFFFFFFFFFFFFF091C080050
:100F800001FFFFFFFFFF040E040000FE003C2721CD
:100F90002020206040C08000000000000000000011
:100FA000000000000001FB0E0003038383838383A2
:100FB000838383070C18F8F8E4CBD5C8D041463CAE
:100FC0001C0C0701000000000000008080C0633E90
:100FD00000000000000000000000000000000F38CA
:100FE00060C1818080808080C0404061301C0505E8
:100FF0000505050C181010101018080C0404060242
:1010000002030101000000000000002008007E7EB5
:1010100042667E3C003C7E42427E3C007E7E183032
:101020007E7E007E7E565646005E5E0000200800F2
:101030004C5E5A7A3200027E7E0202707C26267C4A
:1010400070003C7E42527634007E7E4A4A4200085E
:101050000B0002020200000904000001020200006D
:1010600005240010010524010101042402060524C1
:101070000600010705810310004009040100020A6F
:10108000000000070502024000000705830240003F
:10109000000403090412010002EF0201404123365B
:1010A0008000010102030141726475696E6F204C7A
:1010B0004C430041726475626F79000808000000BB
:1010C0000000000000001C2E5F7F7F3E1C001C22E1
:1010D000414145221C012B552B552B557F00E01E0D
:1010E000E000E01EE0804020100804020100000043
:1010F000FFFF0000000078847A4A84780000000036
:1011000002000216000000183C2C180000003C668B
:101110004A42663C00080800000000000000003F52
:101120007D777D7F7D777D00337777073F7F7F01F8
:101130007FFFFF017FFFFF00105438FF385410007D
:101140000001000101022C6699090909099966004C
:101150000204CCF8301C000001000450000800001C
:1011600000183C2C180000003C664A42663C00080F
:101170000800000000000000007F3F1F0F172B55E4
:10118000AA77770777777770777E7F677B7B7F3F5C
:101190000000E0FEE000E0FEE00202222620202225
:1011A000620FF90909090FF90F28FC0295014AFCA1
:1011B000107E010121211901000000183C2C1800AB
:1011C00000003C664A42663C00040507060504012F
:1011D000020302000808C0F858FC60FF7DFF61FFB1
:1011E0007CFF40FED8FCC4800800E0860800D08068
:1011F00008007D860800C480080020860800AF80B3
:101200000800DD840800A5800800558408000080DF
:1012100093820D00E4820D0010830D0055840D00B3
:10122000C8850D00E0860D0020860D0097840D0016
:101230003F830D0093820D006E820D004B820D00E6
:101240006E820D00008008081E3F31392D3F1E00C0
:1012500000023F3F3F000000223331393F2F26007C
:10126000113125253F3F1B000C0F08383F3F080078
:101270001737273D3D3D19001E3F25253D3D1900EF
:101280000101393D3F070300163F29293F3F160062
:10129000262F29293F3F1E00001C3E322F231D0010
:1012A0000022361C36220000000018181818000012
:1012B000000000000000000000000000000000002E
:1012C000000000000000000000000000000000001E
:1012D00000000909090900000000090909090000C6
:1012E00000000000000700000000000404060000E9
:1012F00001010101010101010000000000000000E6
:1013000000000000000000000000090909090000B9
:1013100000000000000000000000000000000000CD
:1013200000000101010100000404010101010404A5
:1013300001010101010101010000000000000000A5
:101340000000090909090000000007000000000072
:101350000000060404000000010101010101010177
:101360000102020202020201010202020202020161
:101370000101010101010101000000000000000065
:101380000000000909000000000000090900000039
:101390000000000909000000010100000000010137
:1013A000000000000000000004040404040404041D
:1013B0000101010101010101000000000000000025
:1013C00000000000000009090000000000000909F9
:1013D000000000000000000000000000010000000C
:1013E00000000001010000000000010101040404EC
:1013F00001010101010101010000000000000000E5
:1014000009090000000000000909000000000000B8
:1014100000000000000000000000000100000000CB
:1014200000000001010000000404040101010000AB
:1014300001010101010101010000000000000000A4
:101440000000000000000000000000090909000081
:101450000004040909090404010101010101010159
:10146000000000000000000000000000000000007C
:10147000010101010101010101010101010101015C
:101480000505050505050505050000050500000520
:101490000509090505090905050000050500000500
:1014A00005050505050505050505040404040505F0
:1014B000010101010101010101010101010101011C
:1014C00005050505050505050505000909000505CE
:1014D00005050009090005050505050101050505C6
:1014E00005050505050505050505040404040505B0
:1014F00001010101010101010101010101010101DC
:1015000000000000000000000000000000090900C9
:101510000101010100090900080808080009090083
:10152000080808080000000008080808040404046B
:10153000010101010101010101010101010101019B
:10154000010101010101010105000005050000057F
:101550000509090505090905050000040400000541
:10156000010101010101010101010101010101016B
:10157000010101010101010101010101010101015B
:101580000101010101010101050000050501010141
:101590000509090505010101050000050505050509
:1015A0000101010505050505010101040505050504
:1015B0000101010101010101000000000000000023
:1015C0000000000000000000000000000009090900
:1015D00000000000000909090000000000000600EA
:1015E00000000000000101010000000000010101F5
:1015F00001010404040101010000000000000000DA
:101600000909090000000909090909000000090980
:1016100000000000070000000000000006000000BD
:1016200000000001010100000000000101010000B4
:101630000404040101010404000000000000000093
:101640000000000000000000000009090909000076
:101650000000010101010000000001010101000082
:10166000000000000000000000000000000000007A
:10167000040404040404040400000000000000004A
:101680000000000000090900000000000009090036
:101690000009090000010100000909000000000024
:1016A0000001010000000000000000000000000038
:1016B000040404040404040400000000000000000A
:1016C0000000000000000000000000090900000008
:1016D00000000009090000000000000101000000F6
:1016E00000000000000000000000000000000000FA
:1016F00004040404040404040000000000000000CA
:1017000000000909090000000000090909000000A3
:1017100000000000000000000000000000010000C8
:1017200000010000000000000000000000000000B8
:101730000404040404040404000000000000000089
:101740000000000909090000000000090909000063
:101750000000000000000000000000000100000088
:101760000000000000000000000000000000000079
:101770000404040404040404000000000000000049
:101780000000000000000000000101010101010053
:101790000000090909000000000009090900000013
:1017A000000009090900000000000101010000001B
:1017B0000404040404040404000000000000000009
:1017C00000000909090909000000090909090900BF
:1017D0000000000000000000010100000000000106
:1017E00001010000000000010101000000000001F3
:1017F00001010404040404010000000000000000D2
:1018000000000909090000000000090909000000A2
:1018100000000000000000000101000000000000C6
:1018200001010000000101000101040404010100A4
:1018300001010101010101010000000000000000A0
:101840000000090909090000000009090909000050
:101850000000000000000000000001010101000084
:10186000000001020201000000000102020100006C
:10187000040401010101040400000102020100004E
:10188000000001010101000009090505050509091C
:10189000090905050505090900000101010100000C
:1018A000000001020201000000000102020100002C
:1018B0000404010202010404020202020202020202
:1018C0000101010101010101000000000000000010
:1018D00009090909090909090000000000000000C0
:1018E00000010000010000000001000001000000F4
:1018F00004010404010404040202020202020202BE
:1019000001010101010101010000000000000000CF
:1019100000000009090000000000000909000000A3
:1019200000000000000000000000000101000000B5
:10193000040404010104040400000000000000008D
:101940000000000000090000000000000901000084
:101950000000000901010000000009010101000070
:10196000000001010101000000000101010100006F
:101970000404010101010404000000000000000053
:101980000000000000000000000000000000000057
:10199000000109090901000000010404040100001C
:1019A0000001010101010000000000000000000032
:1019B0000000000000000000000000000000000027
:1019C00000090909090909000000000004000000DD
:1019D00000000001010101000000040100000000FE
:1019E00000010101000000000000000000000000F4
:1019F00000000000000000000000000000000000E7
:101A000000000000000000000000000000000000D6
:101A10000000000909090000000000090909000090
:101A200000000000000000000000000401040000AD
:101A300000000001010100000000000000000000A3
:101A40000000000000000000090909090404040462
:101A50000101010101010101080505050505050850
:101A6000080505050505050808050505050505081A
:101A7000010101010101010100000000000000005E
:101A80000000000909000000000000090900000032
:101A90000400000000000004010101000001010138
:101AA000010101000001010101010100000101012A
:101AB00001010100000101010000000020000100FF
:101AC00000300010002022000000232005006000EC
:101AD0006C60150008000002000120000600026092
:101AE000001086008320050000002020070061010F
:101AF0006F611E10050100030003006329030C330E
:101B00000A03070109030333433327210804222072
:101B100043000020202400000000246035105639C6
:101B2000354005400900234843486C200B02054816
:101B300004200048204C0001000200044000200462
:101B4000224CD0184C48A6208130414807480A2032
:101B5000084C2B0005210002000203022302266A22
:101B600022020B01092902010E3930491049481996
:101B70002201003420000000000000002408065C60
:101B8000040022510A5000000D4800002B500000B4
:101B90008D00905000000001000200000200222889
:101BA000000844200500004800484C484048150003
:101BB0002720084820480B020002000002002228CB
:101BC000000844200500004800484C4840481500E3
:101BD0002720084820480B020002000002002228AB
:101BE000000844200500004800484C4840481500C3
:101BF0002720084820480B0200020000020022288B
:101C0000000844200500004800484C4840481500A2
:101C10002720084820480B0200020000020022286A
:101C2000000844200500004800484C484048150082
:101C30002720084820480B022000080120600010DF
:101C40000A600A1000600060001000000000000040
:101C50000000000000000000000200000200222836
:101C6000000844200500004800484C484048150042
:101C70002720084820480B0200020000020022280A
:101C8000000844200500004800484C484048150022
:101C90002720084820480B020002000002002228EA
:101CA000000844200500004800484C484048150002
:101CB0002720084820480B020002000002002228CA
:101CC000000844200500004800484C4840481500E2
:101CD0002720084820480B020002000002002228AA
:101CE000000844200500004800484C4840481500C2
:101CF0002720084820480B0200020000020022288A
:101D0000000844200500004800484C4840481500A1
:101D10002720084820480B02000200000200222869
:101D2000000844200500004800484C484048150081
:101D30002720084820480B02000200000200222849
:101D4000000844200500004800484C484048150061
:101D50002720084820480B02000200000200222829
:101D6000000844200500004800484C484048150041
:101D70002720084820480B021010000000000080B7
:101D800000C080C080C080C000C00080008000C053
:101D900080C080C080C000C00080001F0E3F1E3F7A
:101DA0001F3F0E3F061F0E3F1F3F1E3F0E3F011FEE
:101DB00000030003000301030003101000000000F3
:101DC0000000000000E0C0F0E0F0E0F0E0F0E0F043
:101DD000C0F000E000000000000000000000000073
:101DE000000000000007030F070F070F070F070F82
:101DF000030F0007000000000000000000000000CA
:101E000000F8F0FCF8FCF8FC78FC387C387C78FCB6
:101E1000F8FCF8FCF0FC00F80000000000000000F6
:101E2000001F0F3F1F3F1F3F1E3F1C3E1C3E1E3F1B
:101E30001F3F1F3F0F3F001F0000000000E0C0EEEB
:101E4000C4FE88FE00DC000F061F0E1F0E1F061FBB
:101E5000000F00DC88FEC4FEC0EE00E00007037740
:101E6000237F117F003B00F060F870F870F860F895
:101E700000F0003B117F237F0377000700C782C774
:101E800000C700000000000000070207020700076B
:101E900000000000000000C782C700C700E341E364
:101EA00000E300000000000000E040E040E000E04F
:101EB00000000000000000E341E300E31010000018
:101EC00000000000000000000080008000C080C012
:101ED00080C080C000800000000000000000000002
:101EE0000000007830FE9CFFBEFF3FFF73FF6EFFD7
:101EF000A2FF9DFF20FF0070000000000000000016
:101F000000000000000000000080008000C080C0D1
:101F100080C000C0000000000000000000000000C1
:101F20000000007830FE9CFFBEFF33FF6FFF12FF02
:101F30006DFF6CFF007E000000000000000000004C
:101F4000000000000000008000C080C080E040E091
:101F500040E080E000C00000000000000000000041
:101F60000000003C183F0EFF9FFFBFFF39FF37FF07
:101F700091FF0EFF103F003800000000000000003D
:101F800000000000000000000080008000C000C0D1
:101F900080C080C000C00080000000000000000081
:101FA00000000000007E3C7F0EFFDFFFDFFFD3FF5D
:101FB0002EFF007F217F0071000000000000000064
:101FC00000000000000000C080E0C0F060F0E0F021
:101FD00020F040F000E000000000000000000000E1
:101FE0000000001E0CFF67FF6FFF1FFF5EFF1D7FDD
:101FF0000C3F071F081F001C00000000000000002D
:10200000000000C080C000C080E0C0E0C0E0C0E0D0
:1020100040F060F000F080C000C000000000000050
:1020200000000003011F0F3F377F377F097F077FC5
:10203000317F377F003F01070003000000000000F0
:1020400000000000000000C080C080C000C0008010
:102050000080000000000000000000000000000000
:1020600000000000007E3CFF7EFF77FF6FFF5FFFF8
:102070004EFF34FF007E0000000000000000000062
:102080000000000000000000000000000000000050
:102090000000000000000000000000000000000040
:1020A000000000E0C0FCD8FE3CFF6EFFEEFFDEFF4C
:1020B0004EFF0AFFC4FF00EE000000000000000019
:1020C000000000000000008080C080C080C000C010
:1020D0000080008000000000000000000000000000
:1020E00000000000007020FF9DFFA2FF6EFF73FF45
:1020F0003FFFBEFF9CFF30FE0078000000000000A4
:10210000000000000000000000C080C080C000C0CF
:1021100000800080000000000000000000000000BF
:10212000000000000000007E6CFF6DFF12FF6FFFDB
:1021300033FFBEFF9CFF30FE00780000000000006F
:1021400000000000000000C080E040E040E080E0CF
:1021500080C000C0008000000000000000000000FF
:10216000000000000038103F0EFF91FF37FF39FFDD
:10217000BFFF9FFF0EFF183F003C00000000000063
:1021800000000000008000C080C080C000C000C00F
:10219000008000800000000000000000000000003F
:1021A000000000000071217F007F2EFFD3FFDFFFC2
:1021B000DFFF0EFF3C7F007E0000000000000000FB
:1021C00000000000000000E040F020F0E0F060F0CF
:1021D000C0F080E000C0000000000000000000002F
:1021E00000000000001C081F071F0C3F1D7F5EFF42
:1021F0001FFF6FFF67FF0CFF001E000000000000C4
:10220000000000C080C000F060F040F0C0E0C0E01E
:10221000C0E080E000C080C000C0000000000000FE
:10222000000000030107003F377F317F077F097FF0
:10223000377F377F0F3F011F0003000000000000C1
:10224000000000000000000000000080008000C0CE
:1022500080C080C000C0000000000000000000003E
:10226000000000000000007E34FF4EFF5FFF6FFFA4
:1022700077FF7EFF3CFF007E0000000000000000B2
:10228000000000000000000000000000000000004E
:10229000000000000000000000000000000000003E
:1022A0000000000000EEC4FF0AFF4EFFDEFFEEFF5D
:1022B0006EFF3CFFD8FEC0FC00E000000000CE2016
:1022C00011241FBECFEFDAE0DEBFCDBF11E0A0E0EA
:1022D000B1E0E0E9FEE602C005900D92A033B1073F
:1022E000D9F726E0A0E3B1E001C01D92AD3DB207F1
:1022F000E1F711E1C0E6D1E104C02197FE010E949F
:102300004037CF35D107C9F70E94E2210C944637F8
:102310000C9400008091460108952F923F924F92B5
:102320005F926F927F928F929F92AF92BF92CF9265
:10233000DF92EF92FF920F931F93CF93DF9300D022
:1023400000D01F92CDB7DEB7DC014115510509F46D
:102350001AC1FA01B490319684914E5F5F4FEB2C15
:10236000F12C222301F1E1E0F0E0982F977011F4B5
:10237000F0E0E0E0C82EC694C694C694CE0EDF2EE0
:10238000D11CCE9CF001CF9CF00DDE9CF00D1124F1
:10239000033011F4EE0FFF1F2E9F60012F9FD00C12
:1023A00011244C0D5D1DEA0EFB1E1E141F040CF0C3
:1023B000EAC0A038B1050CF0E6C0FB01E80FF11D42
:1023C0001E161F060CF0DFC0603471050CF0DBC078
:1023D0004115510509F4D7C0262F2770722EFB0135
:1023E00077FD379623E0F595E7952A95E1F72E2FAF
:1023F00077FF04C0772011F02FEF2E0F6627772785
:102400006A1B7B0BB7FD02C070E060E090E89A1B8E
:1024100030E8E316F1040CF49B2D961B9D83C22E2D
:10242000022E000CDD08FC2DF0952F3F0CF0F0E0A3
:10243000E1E0182F177009F4E0E0869586958695FF
:10244000E80FCE0ED11C39E0C316D10414F0E8E039
:10245000E21B1F2F120F30E8130370011124AE0D81
:10246000BF1DA60FB71F472C072C000C550882E094
:10247000033009F081E0C82ED12CDC82CB82BF9ED4
:10248000600D711D112476016E9D60016F9DD00C51
:102490007E9DD00C11247A01EC0CFD1C6B817C819B
:1024A00061507109C60ED71E4C0D5D1DCC24CA9417
:1024B000D12C072C02C0CC0CDD1C0A94E2F7C0948E
:1024C000D0943E2E320E3B2D2D81321B389F602D35
:1024D0001124829F90011124260F311D311609F419
:1024E00052C0BD0160597E4F5B01912C812C80E070
:1024F0007D81781709F43FC0F701E80DF91D64915B
:1025000070E0042C02C0660F771F0A94E2F70230D5
:1025100079F1FA01E80DF91D9491E92FF0E0042C0E
:1025200002C0EE0FFF1F0A94E2F7E095F095FA83E0
:10253000E9836A8017FD08C0F5012080E981E22166
:102540002E2E262AF5012082772049F017303CF400
:10255000F501E058FF4F60816622672A60828F5F35
:102560006B817C81860E971E7FEFA71AB70AC0CFBA
:10257000DA82C982DECF1F5FE20EF31E420F531FC5
:10258000A058BF4FABCF0F900F900F900F900F90B0
:10259000DF91CF911F910F91FF90EF90DF90CF903F
:1025A000BF90AF909F908F907F906F905F904F9073
:1025B0003F902F90089590E120E0382F81E061FD59
:1025C00084E060FD880F62FD8295687F969FD00150
:1025D0001124A30FA059BE4F0C90082A20FF0826F3
:1025E0000C92089520917B0630917C0644E0220FE6
:1025F000331F4A95E1F7FC0153E0F695E7955A95AC
:10260000E1F7E20FF32FF11DEE0FFF1FE854F54E37
:1026100025913491E62FE77048E0E49FF001112402
:10262000AC0147705527E40FF51FA9014F715527DD
:10263000A6E0440F551FAA95E1F7E40FF51FE854F3
:10264000FD4EE491E93020F025FD06C0E0E004C035
:10265000E43011F426FFFACF673011F427FDE0E0F3
:1026600032FF07C087708250843018F4653008F05C
:10267000E0E030FF05C0E13051F0E11101C0E5E0DC
:1026800031FF03C0E11101C0E8E08E2F0895E2E0C0
:10269000F7CF693378F465956595659523E0969550
:1026A00087952A95E1F70E94F2129FEF980F81E03B
:1026B000933008F080E008959B01285031092133C0
:1026C0003105B0F523E0769567952A95E1F76150DD
:1026D00020E8629FB001112433E0969587953A95E2
:1026E000E1F7860F971FFC0143E0F695E7954A95C1
:1026F000E1F7E036F105E0F4E858F94F45818770DD
:10270000242F30E0082E02C0359527950A94E2F771
:1027100020FF0EC021E030E0B90102C0660F771F34
:102720008A95E2F7CB0180958423858381E0089523
:1027300080E00895693368F465956595659523E0B3
:10274000969587952A95E1F70E94F21291E08430E0
:1027500009F090E0892F0895FC0180916F01882392
:1027600011F13FB7F89482E08093E9002091F200E4
:10277000822F90E01816190614F481E090E0882367
:1027800039F0289844E640936E014091F10040836F
:10279000222339F02091F200211103C02BE620936F
:1027A000E8003FBF08958FEF9FEF08952FB7F8948B
:1027B00083E08093E9009091E800892F807295FF73
:1027C00004C09091F20080E4891B2FBF089580918E
:1027D000660181110DC082E08093620184E08093E4
:1027E0006301109265011092640181E0809366019B
:1027F00082E691E00895CF93DF931F92CDB7DEB7C5
:102800006983DC01ED91FC910280F381E02D41E0D0
:1028100050E0BE016F5F7F4F09950F90DF91CF9120
:10282000089583E08093E9008091F200882319F0F5
:102830008AE38093E80008950E94D61390E00895FB
:10284000CF93DF931F92CDB7DEB7FC0184859585CA
:1028500097FD08C02FEF3FEF358724870F90DF915A
:10286000CF910895CE0101960E94AC13019719F4FF
:10287000898190E0F3CF8FEF9FEFF0CF0F931F93FD
:10288000CF93DF931F92CDB7DEB78C01FC01848517
:10289000958597FF0BC0CE0101960E94AC1301975E
:1028A00071F4898190E0F80195878487F801848527
:1028B00095850F90DF91CF911F910F9108958FEF24
:1028C0009FEFF1CFFC018485958597FD0BC09FB7E5
:1028D000F89482E08093E9008091F2009FBF90E03D
:1028E000019608959FB7F89482E08093E900809163
:1028F000F2009FBF90E0089540915C0150915D010E
:1029000020915A0130915B0142175307B4F4909122
:10291000E8009570E1F39091E80092FD19C0809372
:10292000F10080915C0190915D0101968F73992770
:10293000892B19F48EEF8093E80080915C019091CF
:102940005D01019690935D0180935C0181E00895A3
:1029500080E00895DF92EF92FF920F931F93CF9341
:10296000DF93D82E8A01EB017B01E40EF51ECE1514
:10297000DF0559F0D7FE12C0FE0184910E947C143D
:1029800021968111F4CF0FEF1FEFC801DF91CF9196
:102990001F910F91FF90EF90DF9008958881EECF07
:1029A0000F931F93CF93DF931F92CDB7DEB782E0D3
:1029B000898342E450E06FE470E180E80E94AA1449
:1029C0000E94E713DC0112960D911C91011511056F
:1029D00089F0D801ED91FC910280F381E02DBE01D8
:1029E0006F5F7F4FC801099597FD04C0F80100850E
:1029F0001185ECCF89810F90DF91CF911F910F91BD
:102A00000895615030F02091F100FC01208301967F
:102A1000F8CF289884E680936E010895FC010E9407
:102A2000A515319728F068517C4F8F4F9F4FF9CFF4
:102A3000AB01FC010E94A515641775078E079F075F
:102A4000C8F308958F929F92AF92BF92CF92DF9278
:102A5000EF92FF920F931F93CF93DF936C017B0153
:102A60008A0180911001882309F45AC080916F0176
:102A7000882309F455C08091610180FF05C08091D1
:102A8000E00082608093E000E801B12C8AEFA82E7C
:102A900093E0892E2AE3922E209711F4BB20C9F1EE
:102AA0000E94D613811108C0AA94AA20C9F181E01E
:102AB00090E00E940E15F0CF8C171D0611F00CF05F
:102AC0008C2F9FB7F8948092E9002091E80025FDB3
:102AD00002C09FBFE1CF282F30E0C21BD30BF7010C
:102AE000815020F041914093F100FACFE20EF31EA5
:102AF000BB2021F09092E800B12CEBCF8091E80050
:102B000085FDE7CF9092E800BB24B394209709F3AA
:102B1000F3CF5D9884E680936001101611063CF0B7
:102B200081E090E0F6019383828310E000E0C80129
:102B3000DF91CF911F910F91FF90EF90DF90CF9099
:102B4000BF90AF909F908F900895A6E5B1E02FB70A
:102B5000F8947D918D919C9166B52FBFA89B05C07F
:102B60006F3F18F47F5F8F4F9F4F22E0660F771FF4
:102B7000881F991F2A95D1F7089520913C01E09173
:102B80003A01F0913B01CF01029690933B01809373
:102B90003A01222319F085919491089580819181C1
:102BA0000895CF92DF92EF92FF92CF93DF930E942E
:102BB000BD15811520E8920791F4809171008D7FF9
:102BC00080937100109291004698479810923901B5
:102BD000DF91CF91FF90EF90DF90CF90089521E0AB
:102BE00020933901813020E8920751F48091370118
:102BF0009091380190933B0180933A010E94BD155A
:102C000097FD05C020913601222309F454C020917C
:102C10003501211150C021E020933D01EC01DF7707
:102C2000209709F04BC081E080933E0146983FE930
:102C3000C32E3FE0D32EE12CF12CCAEFD0E0E0917F
:102C4000CE05F091CF050995811103C081E08093F5
:102C50003E0180913D01882329F080913E01882327
:102C600009F43FC047980E94BD150097F1F19C01FF
:102C7000DE010E946635DC01CB0129E0B595A79500
:102C8000979587952A95D1F7109290002AE0209386
:102C90009100D0929900C092980080933F01909348
:102CA0004001A0934101B093420180917100826084
:102CB000809371008DCF10923D01B0CF9E0150E006
:102CC00040E060E472E48FE090E00E942535690105
:102CD0007A0181E0C81AD108E108F10810923E019A
:102CE000AECF4699BFCF479ABECF8FEF9FEFDC01A3
:102CF000CBCF9C01E1E7F0E090819D7F908381E064
:102D000080933C0130933B0120933A01309338018A
:102D1000209337010C94D1158091750681FD1BC05D
:102D200080FD0DC090916F06946090936F06909116
:102D30006B06911114C084608093750613C08E7F5A
:102D4000809375068CEB9EE19093740680937306D6
:102D500086EE91E109C08D7F80937506F9CF915081
:102D600090936B0680E192E10E94791680916F0644
:102D7000806480936F0682E88093700608950F93B5
:102D800003E00E948D110F9108954F925F926F9210
:102D90007F928F929F92AF92BF92CF92DF92EF92EB
:102DA000FF920F931F93CF93DF938C0140906106A6
:102DB00050906206609063067090640620E030E0F8
:102DC00040E851ECC301B2010E94E235181634F517
:102DD00080916F0686FD17C0D0916F06C091750671
:102DE000D3FD2DC020E030E0A9016091590670911B
:102DF0005A0680915B0690915C060E94E23587FF3F
:102E0000CBC083E0C6C081FB992790F921E09227CF
:102E100090FB81F980936F069923F1F2DF91CF91B6
:102E20001F910F91FF90EF90DF90CF90BF90AF90E8
:102E30009F908F907F906F905F904F900895A0909B
:102E40005D06B0905E06C0905F06D090600620E000
:102E500030E0A901C601B5010E94273718160CF011
:102E60008DC02DEC3CEC4CEC5DE3C601B5010E943D
:102E7000273718160CF48CC010926E06D5FF03C0CD
:102E800085E080936E0680916D06815080936D067B
:102E9000811108C080916C068F5F80936C0686E07C
:102EA00080936D06E0916E06F0E0E85EFE4F909133
:102EB0006C068081891710F410926C06D2FF03C053
:102EC00086E080936E06C1FF43C0C0FF41C020E092
:102ED00030E040E050E4C301B2010E9476352B019E
:102EE0003C0180916C0680FBEE24E0F8F12CB701E8
:102EF000FF0C880B990B0E941F369B01AC01C3018C
:102F0000B2010E9475350E94E7356B01B801012EB0
:102F1000000C880B990B0E941F369B01AC0160913D
:102F200065067091660680916706909168060E941A
:102F3000753520E030E040E850E40E9476350E948C
:102F4000E735CB0120E044ED51E1B6010E94BF1608
:102F5000E0916E06E73008F0C5C0F0E0E954F84EA5
:102F60006801012E000CEE08FF080C944037D117C1
:102F70000518E5180B18D318D918DF182DEC3CEC00
:102F80004CEC5DEBC601B5010E94E23587FF74CFC2
:102F900081E080936E0672CF84E0C0FFFACF82E0BA
:102FA000F8CFE0916C06F0E0ED52FE4EE491C09156
:102FB0006F06C295C170CC0FCC0FCC0FCE0FA09076
:102FC0007306B090740660916106709162068091FC
:102FD0006306909164060E94E7352B01C701B60194
:102FE0000E941F369B01AC016091650670916606D8
:102FF00080916706909168060E9475350E94E735BA
:10300000CB012C2FA501B2016BC0E0916C06F0E062
:10301000E153FE4ECBCFC701B6010E941F362B01F4
:103020003C018091750681FF2CC020E030E040E833
:103030005FE36091610670916206809163069091F2
:1030400064060E9476350E94E7356B01A301920168
:10305000609165067091660680916706909168069A
:103060000E94753520E030E040E850E40E9476355B
:103070000E94E735CB0120E044ED51E1B6010E940A
:10308000BF16E0916C06F0E0E253FE4EE491C09171
:103090006F06C295C170CC0FCC0FCC0FCE0FE09055
:1030A0007306F090740660916106709162068091DB
:1030B0006306909164060E94E7355B01A3019201CB
:1030C000609165067091660680916706909168062A
:1030D0000E9475350E94E735CB012C2FA701B50161
:1030E0000E94BF168091750681FF98CE90916E0662
:1030F000933009F493CE80FD91CE20E030E040E0A3
:1031000050E460916106709162068091630690912F
:1031100064060E9476356B017C0180916C0680FB11
:10312000882480F8912CB401990C880B990B0E948B
:103130001F369B01AC01C701B6010E9475350E9484
:10314000E7356B01B801110F880B990B0E941F36F0
:103150009B01AC01609165067091660680916706DF
:10316000909168060E94753520E030E040E850E418
:103170000E9476350E94E735CB0120E044ED51E115
:10318000B601DF91CF911F910F91FF90EF90DF90EB
:10319000CF90BF90AF909F908F907F906F905F90F7
:1031A0004F900C94BF16E0916C06F0E0E353FE4E96
:1031B000FDCEE0916C06F0E0E453FE4EF7CEE091D8
:1031C0006C06F0E0E553FE4EF1CEE0916C06F0E0C7
:1031D000E753FE4EEBCE0F930AEF0E948D110F9135
:1031E0000895BF92CF92DF92EF92FF920F931F93B9
:1031F000CF93DF936C01B62EF12CE12CC7018F77B2
:103200009927EC0133E0CC0FDD1F3A95E1F7CC199B
:10321000DD099E01295F3F4F2738310520F58701E1
:10322000000F012F001F110B602F0E94F212282F98
:103230008823C9F08930B9F0B80183E0660F771FA1
:103240008A95E1F781E045E151E1B81649F0B816F9
:1032500028F082E04BEB50E1B81611F04FE651E157
:10326000CE010E94EB188FEFE81AF80AE11484E00F
:10327000F80621F6DF91CF911F910F91FF90EF900B
:10328000DF90CF90BF9008950F9302E00E948D11C0
:103290000F910895AF92BF92CF92DF92EF92FF927B
:1032A0000F931F93CF93DF93EB0110E000E0E42E28
:1032B000F12CC22ED12C3AE0A32EB12C0E151F05F5
:1032C000E4F4C80123E0880F991F2A95E1F7F6017D
:1032D000E81BF90B20E0209731F0CE01B5010E94E8
:1032E0002C37EB01282F46E452E170E060E0CF017B
:1032F0000E9444190F5F1F4FE1CFDF91CF911F91C3
:103300000F91FF90EF90DF90CF90BF90AF90089516
:103310000F931F93CF93DF938C01D0E0C0E0FE01A9
:1033200053E0F695E7955A95E1F7E858F94F85810E
:1033300090E02C2F277002C0959587952A95E2F78B
:1033400080FF23C0CE018F77992743E0880F991F14
:103350004A95E1F7801B910B9C01295F3F4F27386D
:10336000310598F420917A06275FBE01660F672F1A
:10337000661F770B71956F5F7F4F660F660F660F45
:1033800070E04FE651E10E9444192196C11583E097
:10339000D80729F6DF91CF911F910F91089590E002
:1033A0000C940E158FB18095807F669B88601C9B66
:1033B000846008958EBD00000DB407FEFDCF089512
:1033C000109246013E983F9808953E9A3F9A81E0B8
:1033D00080934601089590914701982329F4909194
:1033E0004801982381E009F480E00895CF93C82F25
:1033F0000E94D219982F9C2381E09C1380E0CF91EA
:103400000895E0E7F1E080E0A0E0B8E000800EBCC5
:103410008111012C1197A0FDFDCF0192B9F70DB4D8
:10342000089590E0E0E7F1E091119FEF8FEF919325
:103430009193919391938150D0F7089580913301A6
:10344000882321F01092330180E0089520915201E9
:1034500090913401322F391B932F30910101931732
:1034600040F49F5F931790F491E093BF889513BE4B
:10347000089581E08093330120933401E1E3F1E08A
:103480008081918101968083918381E00895EF92FC
:10349000FF920F931F93CF93DF93D42FE62EF12C3F
:1034A000082F10E0CBEA4C9FC12D1124C69521E0D6
:1034B0002C0F46E452E1B701C8010E9444192CE0E8
:1034C00046E452E1B701C80108960E9444198C2FC6
:1034D000880FC80F2D2F2C1B2F5F46E452E1B70138
:1034E000C8014096DF91CF911F910F91FF90EF900F
:1034F0000C944419FC0194819F70933071F018F47E
:10350000923031F00895943059F0953061F008957B
:1035100082E395E090878783089580EB93E0FACF6C
:103520008EE292E0F7CF8CEA90E0F4CF0F931F93F6
:10353000CF93DF938091DC0581608093DC058091DF
:10354000E20581608093E205EDE7F6E08DED96E01F
:1035500011928E179F07E1F7D0E0C0E001E010E084
:10356000BE01660F672F661F770B71956F5F8C2FFB
:103570008F7790E00E94F212893090F0FE0183E094
:10358000F695E7958A95E1F7E858F94F8C2F877003
:10359000980101C0220F8A95EAF78581822B8583E5
:1035A0002196C11583E0D807D9F680E090E0A0E02D
:1035B000B1E48093650690936606A0936706B09386
:1035C00068068093610690936206A0936306B093A9
:1035D000640680916F061092710610925D0610923B
:1035E0005E0610925F0610926006109259061092C5
:1035F0005A0610925B0610925C068F7D8B7F80933B
:103600006F06DF91CF911F910F910895CF93DF93B4
:10361000C9E5D6E06889798990E080E020E547E057
:103620000E944A19CA892BE046E452E170E060E04A
:1036300088E690E00E9444192AE046E452E170E0F6
:1036400060E080E690E00E9444196C2F70E090E00A
:1036500080E028E742E00E944A1940917B0660E042
:1036600081E0DF91CF910C94471ACF93DF93EC0167
:1036700030E020E089E0829FF001839FF00D11246B
:10368000DF01A05DB94F9C9194FD1AC0942FE45DB9
:10369000F94FD183C08362834C91406111968C9124
:1036A00011978E7F11968C9311979F70407D492BB7
:1036B0004C93CF010E947A1A81E0DF91CF91089557
:1036C0002F5F3F4F25303105B1F680E0F6CFCF9226
:1036D000DF92EF92FF920F931F93CF93DF9376E0E9
:1036E000969587957A95E1F7D62ED80EED2CF12C8C
:1036F0008FE090E08E199F09C1E0D0E002C0CC0FAE
:10370000DD1F8A95E2F78091440190914501C8231D
:10371000D923209709F0A4C0870136E0000F111FBC
:103720003A95E1F7005F1F4FE0917B06F0917C0630
:1037300044E0EE0FFF1F4A95E1F7EE0DFF1DEE0F7F
:10374000FF1FE854F54E8591949193FF35C0C12C2D
:1037500060E16C0DC8010E944913811102C0CC2D9B
:1037600005C048E0C40E58E2C512F2CFD7FC53C0E2
:10377000E0917B06F0917C0684E0EE0FFF1F8A95B6
:10378000E1F7EE0DFF1DEE0FFF1FE854F54E85919A
:103790009491E92FE295EF70E150E73008F03BC0DB
:1037A000F0E0EB52F44E0C944037EA1B291C391C14
:1037B0003B1C3D1C3F1C4A1C28E2C22E60E16C0DE4
:1037C000C8010E944913882309F4C9CF88EFC80EA5
:1037D000A9F7CCCF80911D0680FD35C080912306CE
:1037E00080FD34C08091290680FF15C082E090E002
:1037F00026E0289FF001299FF00D1124DF01A65E2D
:10380000B94F11961C930E931296CC93E35EF94F29
:1038100080818E7F80832FE030E02E193F0981E088
:1038200090E0AC0102C0440F551F2A95E2F79A01BF
:103830008091440190914501842B932B90934501F5
:10384000809344010DC090E080E0D2CF81E090E011
:10385000CFCF42E06C2FC8010E94351B8111DBCF16
:10386000DF91CF911F910F91FF90EF90DF90CF905C
:10387000089543E0EFCF44E0EDCF45E0EBCF42E0E9
:103880006C2FC80140970E94351B42E06C2FC80185
:103890004096E2CF43E06C2FC80140970E94351B51
:1038A00043E0F4CFCF92DF92EF92FF920F931F93FA
:1038B000CF93C0E80E941E1A811101C0CD5F0C2F6A
:1038C00010E0F12CE12CC7FD04C0B701C8010E9433
:1038D000DB128FEFE81AF80A80E4E816F10499F792
:1038E000680181E0C81AD108F12CE12C80E8C816E3
:1038F000D10424F4B701C6010E94DB128FEFE81A4D
:10390000F80A80E4E816F10489F702501109F12C55
:10391000E12C0038110524F4B701C8010E94DB1224
:103920008FEFE81AF80A80E4E816F10491F70E9494
:10393000011AC350C43008F0BDCFCF911F910F9131
:10394000FF90EF90DF90CF9008958091000181501B
:103950008093000181110FC0809130018F5F8093AF
:1039600030018EE18093000181E090917A069111FF
:1039700080E080937A060895CF92DF92EF92FF92D3
:103980000F931F93CF93DF930E94521C1092450117
:103990001092440180917B0690917C060196909351
:1039A0007C0680937B062091D4052E7F2093D4053E
:1039B00010926506109266061092670610926806CD
:1039C00010924A011092490163E070E00E942C3786
:1039D000892B09F069C082E090E090934F018093B9
:1039E0004E0190E080E049E0489FF001499FF00DD2
:1039F0001124E05DF94F208131813E7F31832062C7
:103A00002F7E208301968530910571F70E94961ACA
:103A100060E090E080E00E94671B61E090E080E061
:103A20000E94671B62E090E080E00E94671B63E0F9
:103A300090E080E00E94671B80914E0190914F01C1
:103A40000197C9F5C1E0D0E8C7FD35C00E941E1A34
:103A5000811101C0C55060914C0190E080E00E944E
:103A6000F11890E080E00E94881990E080E00E94C8
:103A7000C51610E000E0ED2EEC1AF12C0E151F0516
:103A8000B4F4D12CC12C0038110524F4B601C801BE
:103A90000E94DB128FEFC81AD80A80E4C816D1043E
:103AA00091F70F5F1F4FEACF81E090E096CF0E9421
:103AB000011ACB5FC9CF80916F068F7780936F0615
:103AC000DF91CF911F910F91FF90EF90DF90CF90FA
:103AD00008951F920F920FB60F9211248F939F9308
:103AE0008091E1009091E100937F9093E10083FF4A
:103AF0000FC01092E90091E09093EB001092EC005F
:103B000092E39093ED0010926F0198E09093F00093
:103B100082FF22C093E09093E9009091F2009923F4
:103B200019F09AE39093E80090916001992341F095
:103B300090916001915090936001911101C05D9A44
:103B400090916E01992341F090916E019150909364
:103B50006E01911101C0289A84FF18C08091E20083
:103B60008E7E81608093E2008091E1008F7E809361
:103B7000E100809161018E7E8061809361019F915F
:103B80008F910F900FBE0F901F90189580FFF7CF69
:103B90008091E2008E7E80618093E2008091E1005E
:103BA0008E7E8093E100809161018E7E8160E5CF01
:103BB0001F920F920FB60F921124CF92DF92EF92C5
:103BC000FF920F931F932F933F934F935F936F93A6
:103BD0007F938F939F93AF93BF93EF93FF93CF9375
:103BE000DF93CDB7DEB76C97DEBFCDBF1092E90093
:103BF0008091E80083FF25C068E0CE0145960E94D1
:103C0000011582EF8093E8008D8987FF39C090917C
:103C1000E80090FFFCCF982F907609F034C19E8980
:103C20004F89588D2F89F88C911131C0803861F5FA
:103C300080915F018093F1001092F1008EEF8093EC
:103C4000E8006C960FB6F894DEBF0FBECDBFDF91D3
:103C5000CF91FF91EF91BF91AF919F918F917F9104
:103C60006F915F914F913F912F911F910F91FF9015
:103C7000EF90DF90CF900F900FBE0F901F90189590
:103C80009EEF9093E800C7CF1092F100D5CF91300E
:103C900059F48111D3CF4130510581F680915F01F4
:103CA0008D7F80935F01CACF933049F48111C6CFD5
:103CB0004130510519F680915F018260F2CF953055
:103CC00041F48091E80080FFFCCF20682093E3005E
:103CD000B5CF963009F0A9C00B8D1C8D22E0109253
:103CE000E90010925D0110925C01F2122EC0109258
:103CF0005B0110925A010E94D0141F8299E09983AF
:103D0000FA8291E09E8390EA98879AEF99872091B2
:103D10005C0130915D01275F3F4F3C832B838D8396
:103D20001092E90010925D0110925C0110935B010A
:103D300000935A0149E050E0BE016F5F7F4F80E081
:103D40000E94AA140E94D01479CF10935B010093B3
:103D50005A010E94E713DC0112960D911C91011586
:103D6000110509F451C1D801ED91FC910480F58150
:103D7000E02DBE016B5E7F4FC8010995009709F0E9
:103D80003EC1F80100851185EACFF3E0FF120EC0B5
:103D90008F89882309F440C0823061F440E867E0ED
:103DA00083EB90E10E949B20811148CF81E28093B8
:103DB000EB0047CF813029F440E86BE087EA90E1DF
:103DC000F1CF833099F70E94E713DC011296ED9052
:103DD000FC908E010F5F1F4F6801E114F10479F030
:103DE000D701ED91FC910680F781E02DB801C70164
:103DF0000995080F111DF701E084F184EECFD80179
:103E00001C92F60101900020E9F73197BF016C196F
:103E10007D0940E0C601C6CF61E970E1FB01449134
:103E200050E080E80E94AA1409CF973009F4BECF71
:103E3000983021F481E08093F10000CF993009F0AF
:103E4000FDCE837009F0B2CFE2E1F1E081E031E034
:103E500096E32191222371F08093E9003093EB00E7
:103E6000DF0111972C912093EC009093ED008F5F70
:103E7000873079F78EE78093EA001092EA008F8905
:103E800080936F01DBCE8B8D9C8D1092E900109298
:103E90005D0110925C0190935B0180935A01898DC2
:103EA000811192C08E899D89913A49F4813209F03D
:103EB0007DCF47E050E069E071E080E0B3CF913220
:103EC00009F074CF833269F48F89988DB0E0A0E057
:103ED0008093050190930601A0930701B093080118
:103EE000ADCE803269F48091E80082FFFCCF67E0BC
:103EF00089E091E00E9401158BEF8093E8009ECE4F
:103F0000823209F09BCE8F8980931001EEEFFFE79C
:103F1000859194918B3F9C4D51F1E0E0F8E08091C8
:103F2000090190910A01A0910B01B0910C01803B15
:103F30009440A105B105F1F48091100180FD1AC0F3
:103F4000EE3F8AE0F80789F587E797E7918380835A
:103F50008091600080935E0188E19BE00FB6F89449
:103F6000A895809360000FBE9093600067CEEEEF3F
:103F7000FAE0D5CF808191818737974709F05ECEEF
:103F8000A8958091600088618093600080915E01B7
:103F900080936000EE3F2AE0F20789F08091FE0AEC
:103FA0009091FF0A9183808349CE808191818737E8
:103FB000980751F29093FF0A8093FE0AC5CF1092A2
:103FC000FF0A1092FE0A3ACE0E94E713DC01129615
:103FD0000D911C910115110509F4E8CED801ED9160
:103FE000FC910190F081E02DBE016B5E7F4FC80116
:103FF0000995811123CEF80100851185EBCF1816A4
:1040000019060CF41BCED2CEF1E0FF12BECE65E94C
:1040100070E104CF0F920FB68F939F93EF93FF93AE
:10402000809151018D5F8D3708F08D57809351013C
:10403000E2E5F1E080818E4F808391819F4F9183F3
:1040400082818F4F828383818F4F8383E6E5F1E006
:1040500080818F5F808381818F4F818382818F4FA9
:10406000828383818F4F83838FB18F6066991C9B7E
:1040700088278F3681F480915001981B963068F024
:10408000E0E0F8E087E78083818388E18093600047
:10409000F0936000FFCF90935001FF91EF919F91BB
:1040A0008F910FBE0F9018951F920F920FB60F921F
:1040B00011242F933F934F935F936F937F938F932D
:1040C0009F93AF93BF93EF93FF9380913F019091A4
:1040D0004001A0914101B09142010097A105B105B5
:1040E00039F120913E01211105C0369A20913D0100
:1040F0002111379A0197A109B109B7FD08C0809332
:104100003F0190934001A0934101B0934201FF9180
:10411000EF91BF91AF919F918F917F916F915F913F
:104120004F913F912F910F900FBE0F901F901895B8
:104130000E94D115ECCFEF92FF920F931F93CF9374
:10414000DF93F82E192FE62E042F81E0860F880FBB
:104150000E947C1483E00E947C14CF2DD12FEC0EA2
:10416000FD2EF11CCE15DF05B9F007FF13C0FE01CF
:1041700084910E947C14182F80E00E947C1481237B
:1041800021968111EFCFDF91CF911F910F91FF9079
:10419000EF9008958881EDCF81E0F5CF10927305FF
:1041A0001092720588EE93E0A0E0B0E08093740571
:1041B00090937505A0937605B093770582E291E020
:1041C00090937105809370058FEF9FEF90937D051D
:1041D00080937C058AE891E19093CF058093CE058A
:1041E00080E090E89093CD058093CC0546983E9A68
:1041F00047983F9A10927A0610927C0610927B069E
:104200001092590610925A0610925B0610925C06A4
:1042100010925D0610925E0610925F061092600684
:1042200010926A061092690682E080936B061092E3
:104230006C0610926E06109270061092710680E065
:1042400090E0A0E2B1E48093650690936606A093A7
:104250006706B09368068093610690936206A09308
:104260006306B093640681E08093720686E08093D3
:104270006D0680916F06807882608F7780936F06DD
:104280008CEB9EE1909374068093730610927606F1
:1042900010927706809175068D7F8E7F80937506CC
:1042A000ECE2F6E01182108212821382399686E0E7
:1042B000E935F807B9F710921B0610921A0610920A
:1042C0001C061092210610922006109222061092CF
:1042D00027061092260610922806A3EEB5E02AE1E2
:1042E00036E0FD0193E04AEB5DE11182108213821A
:1042F000128216829783808581608D7F80875287A6
:1043000041873B962E173F0781F790E080E063E0FE
:104310003BE04AEB5DE111961C921E9213961C92B3
:104320001E92129716961C92169717966C931797D3
:10433000389FF001399FF00D1124E551FA4F20818B
:1043400021602D7F20831A965C934E9319970196D6
:104350001B9685309105F9F628E73DE13093D805A5
:104360002093D7051092DA051092D9051092DB053B
:104370008091DC058160817F8093DC053093DE05D0
:104380002093DD051092E0051092DF051092E10503
:104390008091E2058160817F8093E20580E18093D6
:1043A000D5058093D6051092D1051092D0051092B4
:1043B000D3051092D2058091D4058D7F8E7F809396
:1043C000D4050895CDB7DEB76897DEBFCDBF78942A
:1043D00083E084BD83E085BD81E080936E00E1E8E9
:1043E000F0E083E08083E0E881E08083E1E983E03E
:1043F0008083E0E981E08083E1EC87E08083E3EC87
:1044000081E08083E0EC82E08083E2EC81E08083E5
:10441000EAE787E080838068808310926F011092C2
:104420005F01109261018091D70081608093D70075
:1044300080EA8093D80089B5806189BD89B58260A2
:1044400089BD09B400FEFDCF81E090E00E940E1509
:104450008091D8008F7C80618093D8008091E000AB
:10446000807F8093E0008091E1008E7E8093E10068
:104470008DE08093E200559A209A81EC80937C0035
:1044800081EF85B987EE84B984E38BB984EF8AB96B
:10449000769A6E9880EF81BB10BA80E58CBD11E0F2
:1044A0001DBD85E00E94CF195F9A85E00E94CF195B
:1044B0005C98E4EBF6E085910E94DA19E13CD9F7CB
:1044C0005C9A81E880936400109365000E94011A51
:1044D00080E80E94F619882391F05C9885EA0E9492
:1044E000DA195C9A2E982F982D988091640080623A
:1044F0008093640081E083BF889513BEFCCF84E085
:104500000E94F6198823B9F12D9884E80E94F619C3
:104510008823A1F02D9A88EC0E94CF192F986FEF75
:1045200082E090E00E94133584EF91E00E940E1526
:104530002F9A84E80E94F6198111FBCF84E10E9432
:10454000F6198823A1F02D9A88EC0E94CF192E9895
:1045500060E082E090E00E94133584EF91E00E94D9
:104560000E152E9A84E10E94F6198111FBCF88EC7A
:104570000E94CF19C4CF2D9A82E090E00E940B35A3
:10458000882309F4B7C00E94E51982E30E94CF197D
:104590000E94D2198111F9CF00E014E080E00E945E
:1045A000DA1901501109D1F780E180930101D12C72
:1045B000C12C4CE2E42E46E0F42E10E000E054EB77
:1045C000A52EB12C6AE0862E79E0972E1C82BA8245
:1045D000A9828B828E818E7F8E831F8282E28D8361
:1045E000CE0101960E947A1A89E0FE013196D70128
:1045F00001900D928A95E1F7D701CD92DC92909EC1
:10460000F001919EF00D1124E05DF94F80818F7EC5
:10461000806280830F5F1F4FB9E0EB0EF11CE4EB6B
:10462000CE0ED11C0530110589F610921B06109292
:104630001A0610921C0680911D06816080931D064B
:1046400081EC96E090931F0680931E06109221063F
:1046500010922006109222062091230621602093BA
:104660002306909325068093240610922706109225
:1046700026061092280620912906216020932906FB
:1046800090932B0680932A0688EE93E09093D105B1
:104690008093D00588E290E09093D3058093D20573
:1046A0000E941E1A8E8B8823F1F08091480180931E
:1046B00047010E94D219809348010E94111A8091EB
:1046C000040121E082278093040180914E019091A2
:1046D0004F018130910509F4BDC078F0029709F4CB
:1046E0007EC00E94011A80E090E0892BC9F20E94EE
:1046F0000000D6CF0E94E01948CF20E041EF5EE0F5
:104700006BE070E087E090E00E94EB1820E04FE75C
:104710005EE060E170E08CE390E00E94EB1820E046
:104720004DE45EE064E270E08AE490E00E94EB1801
:104730001091460120E04BE25EE0111102C049E019
:104740005EE060E370E080E790E00E94EB180E947A
:10475000A51C40917B0650917C064115510521F026
:1047600060E081E00E94471A84E00E94EB198823F0
:1047700061F00E94521C0E94111A10924D0182E0B9
:1047800090E090934F0180934E0188E00E94EB19D6
:10479000882321F0112301F10E94E01980E80E9492
:1047A000EB19882349F080917B0690917C06019655
:1047B00090937C0680937B0680E10E94EB1988230E
:1047C00009F48FCF80917B0690917C06019790939E
:1047D0007C0680937B0685CF0E94E519DFCF809110
:1047E0004D01811104C083EC9DE00E9479160E9466
:1047F000061B20E04DE250E16EE170E084E290E0C3
:104800000E94441940917B066FE18CE40E94471A94
:1048100080914D018F5F883718F480934D0161CFEF
:1048200010924D010E94961A21E030E030934F0122
:1048300020934E0180917B0690917C0623E030E02E
:10484000B9010E942C37CB01B9010E942C3780930B
:104850004C0147CF80917B0690917C0663E070E02D
:104860000E942C37AC019091D4054230510509F0DB
:10487000DCC220934B01892F8D7F8093D4058091DA
:104880006F0682FF48C0809103018150809303012D
:10489000811141C082E090E090934F0180934E01DE
:1048A0008FEF809303018CEB9EE1909374068093CD
:1048B00073068091750682FF2CC010924D0191E025
:1048C0009093020110924F0110924E0110924501F7
:1048D0001092440110927C0610927B069091D405B0
:1048E0009E7F9093D40510926506109266061092F2
:1048F00067061092680692E090936B0610926A0623
:104900001092690610924A01109249018B7F8093A0
:1049100075060E94961A80910201282F30E048EE19
:1049200053E0249FB001259F700D349F700D11241A
:10493000629FA001639F500D729F500D1124209122
:10494000690630916A062417350760F08F5F8093FF
:10495000020180916B068F5F80936B068DE99DE06D
:104960000E94791620E030E040E852E4609165064C
:104970007091660680916706909168060E94753571
:104980000E945A360E94E73577FF54C210924A01BE
:1049900010924901C0904901D0904A0160914C01A8
:1049A000C6010E94F11880914B018823E9F038E19B
:1049B000E32EF12C06EB13E00C191D0920E043E96E
:1049C0005DE0B701C8010E94441958E0E50EF11CF2
:1049D00068E3E616F10491F720E049E85DE060E164
:1049E00070E0C8010E9444193090D40531FE9BC08C
:1049F000C0906106D0906206E0906306F090640675
:104A000020E030E0A901C701B6010E94273718163F
:104A10000CF089C08090650690906606A0906706AD
:104A2000B09068060091D0051091D10520E030E0EB
:104A300040E850E4C501B4010E9476352B013C01E9
:104A4000B801012E000C880B990B0E941F369B01A8
:104A5000AC01C301B2010E94273718160CF063C0E5
:104A600020E030E040E351E4C501B4010E94763516
:104A70004B015C018091D505B801680F711D87FD60
:104A80007A95072E000C880B990B0E941F369B010C
:104A9000AC01C501B4010E94E23587FF44C000911A
:104AA000D2051091D30520E030E040E151E4C70188
:104AB000B6010E9476354B015C01B801012E000C55
:104AC000880B990B0E941F369B01AC01C501B401F4
:104AD0000E94273718163CF520E030E040E751E40B
:104AE000C701B6010E9476356B017C018091D60525
:104AF000B801680F711D87FD7A95072E000C880B91
:104B0000990B0E941F369B01AC01C701B6010E94A0
:104B1000E23587FF08C0689430F83092D40583E40A
:104B20009DE00E94791680914B018823E9F020E0F6
:104B300030E84DE654E46091650670916606809118
:104B40006706909168060E94273718166CF48091CA
:104B50006F0687FD04C085EF9CE00E947916809166
:104B60006F06806880936F060091490110914A0199
:104B70002091D40521FF0FC021706091D205709162
:104B8000D3058091D0059091D10543EB5CE0801B6B
:104B9000910B0E944419C8010E9488190E94061BAB
:104BA0008091D40580FD0E94BC1C0AE116E0912C86
:104BB000812C2AEB222E2DE1322E76E0789DF00119
:104BC000799DF00D1124E35EF94F808180FDFDC0D9
:104BD000D80114964D915C91159712966C9112978D
:104BE00070E08D919C91E0914901F0914A0120E0A3
:104BF0008E1B9F0B0E94BF16F801A080B1804090D1
:104C00006506509066066090670670906806B5016C
:104C10006D5F7F4F90E080E00E941D366B017C014C
:104C200020E030E040E351E4C301B2010E94763558
:104C30009B01AC01C701B6010E94E23587FFC5C0E8
:104C4000B501645F7F4F90E080E00E941D366B01EC
:104C50007C0120E030E040E850E4C301B2010E9452
:104C600076359B01AC01C701B6010E9427371816A3
:104C70000CF0ABC0D8011296EC90F12C409061067C
:104C8000509062066090630670906406B7016E5F94
:104C90007F4F072E000C880B990B0E941F366A87E6
:104CA0007B878C879D8720E030E040E751E4C3019B
:104CB000B2010E9476359B01AC016A857B858C85AB
:104CC0009D850E94E23587FF80C0B701625F7F4FFC
:104CD000072E000C880B990B0E941F366A877B8772
:104CE0008C879D8720E030E040E151E4C301B201B0
:104CF0000E9476359B01AC016A857B858C859D85FC
:104D00000E94273718160CF060C090E080E0E82F72
:104D1000FBE0F89FD001F99FB00D1124A551BA4FC7
:104D20002C9120FD05C001968430910581F7E4E0C7
:104D30002BE02E9FF0011124DF01AD51BA4F1A96DE
:104D40003C922E921997E551FA4F808116961C924B
:104D500016978D7F8E7F808333E017963C9317974D
:104D600084E0AA0CBB1C8A95E1F71196BC92AE9226
:104D700094E0EE0CFF1C9A95E1F71396FC92EE92EC
:104D8000129714961C92149715961C9285E09CE03D
:104D90000E94791680914301813009F481C008F4A2
:104DA00059C0823009F4A1C026E0289DF001299D58
:104DB000F00D1124E35EF94F9081916090838F5F35
:104DC000833008F0B7C0809343013FEF831A930A02
:104DD0000A5F1F4F43E08416910409F0EECEFCE217
:104DE0002F2EF6E03F2E912C812CA9E0CA2EBBE09D
:104DF000AB2ED1018D919C91883FBFEF9B074CF06A
:104E0000F1016281683328F48331F4E09F070CF4E8
:104E100094C0C89CF001C99CF00D1124E05DF94FCD
:104E200080818F7E80628083BFC010924B01892F6A
:104E3000826023CD613843E074072CF470934A01FB
:104E400060934901A7CD80E893E090934A01809355
:104E50004901A0CDD80112969C9112972D913C91B9
:104E60004091DC05E091E205E17040FDE0E0B6E054
:104E7000BE9FF0011124DF01A952BA4F13963C9353
:104E80002E93129714969C931497E452FA4F9081A4
:104E9000927F9D7F9083E1E7FCE0ED93FC9384CFCC
:104EA000D80112969C9112972D913C914091DC056E
:104EB000E091E205E17040FDE0E0B6E0BE9FF00168
:104EC0001124DF01A952BA4F13963C932E931297E7
:104ED00014969C931497E452FA4F9081927F9460B9
:104EE0009D7F9083E8E7FDE1D8CFD80112969C9191
:104EF00012972D913C914091DC05E091E205E17023
:104F000040FDE0E0B6E0BE9FF0011124DF01A952B0
:104F1000BA4F13963C932E93129714969C93149722
:104F2000E452FA4F9081927F98609D7F9083EFE2E8
:104F3000FCE0B3CF1092430148CFC89CF001C99C5C
:104F4000F00D1124E45DF94F24812F702430B1F06D
:104F5000605F04960E944913811110C0D10112961E
:104F60006C911297605F8D919C910B960E944913F2
:104F7000811104C0F10182818F5F8283D101139678
:104F80009C9113979F5F13969C931397C89CF00175
:104F9000C99CF00D1124E05DF94F808185FFF9C3B4
:104FA0008F7E9A3508F03FCFE0904901F0904A019A
:104FB000C89CF001C99CF00D1124DF01A05DB94F20
:104FC0003C9134FF1DC035FFABC5D10113968C91C8
:104FD000139780FD15C036FB332730F9232F220F9E
:104FE000230F2E5F17964D915C91189712966C9136
:104FF000129770E08D919C918E199F090E94BF16A7
:10500000C89CF001C99CF00D1124E05DF94F80812E
:1050100085FD05C1D1010D911C91970128513109E0
:10502000021713071CF48F7E80628083F394E016CE
:10503000F1065CF4C89CF001C99CF00D1124E05D00
:10504000F94F80818F7E806280834090610650900E
:105050006206609063067090640620E030E040E8ED
:1050600051ECC301B2010E94E23518160CF0D7C012
:10507000C89CC001C99C900D1124FC01E05DF94F52
:10508000FB8BEA8BD080D5FCCAC02091650630919D
:10509000660640916706509168062A873B874C87D1
:1050A0005D87B8016C5F7F4F072E000C880B990B52
:1050B0000E941F366E877F87888B998B20E030E0B7
:1050C00040E351E46A857B858C859D850E94763519
:1050D0009B01AC016E857F85888999890E94E235A4
:1050E00087FF9DC0B801655F7F4F072E000C880BBE
:1050F000990B0E941F366E877F87888B998B20E0E3
:1051000030E040E850E46A857B858C859D850E946F
:1051100076359B01AC016E857F85888999890E94CF
:10512000273718160CF07BC0D1011296EC90F12CA9
:10513000B701675F7F4F072E000C880B990B0E9409
:105140001F366E877F87888B998B20E030E040E7A1
:1051500051E4C301B2010E9476359B01AC016E851A
:105160007F85888999890E94E23587FF58C0B701F9
:10517000615F7F4F072E000C880B990B0E941F3632
:105180006E877F87888B998B20E030E040E151E487
:10519000C301B2010E9476359B01AC016E857F850B
:1051A000888999890E9427371816CCF580916F0657
:1051B00085FDEDC48091750681FD109243018091BB
:1051C000700681112CC020E030E040E85FEB2093B6
:1051D000590630935A0640935B0650935C06B8011B
:1051E000110F880B990B0E941F362B013C01AC015B
:1051F0009B016A857B858C859D850E94E23587FFB2
:10520000AEC440E050E060E070EC40935D06509327
:105210005E0660935F06709360060E948C163FEFF7
:10522000831A930A49E0240E311C55E08516910437
:1052300009F0DFCD8090610690906206A090630631
:10524000B0906406C0906506D0906606E090670650
:10525000F090680620E030E040E151E4C501B4017F
:105260000E9476350E94EE352B0120E030E040E8C8
:1052700050E4C701B6010E9476350E94EE356A8778
:105280007B878C879D87B2018A859B850E945C13F2
:10529000882309F49BC48091690690916A0605965B
:1052A00090936A068093690687E69BE00E947916D0
:1052B0008091490190914A010E94C51680916F0624
:1052C00082FD3CC187FB222720F9222319F091E0BF
:1052D0009093770686FF0BC0909170069150909343
:1052E0007006911104C08F7B826080936F0621113C
:1052F000BCC080E20E94F619882339F1C0905D0697
:10530000D0905E06E0905F06F090600620E030E00E
:1053100040E45FEBC701B6010E942737181684F4FA
:105320002AE939E949E15EE3C701B6010E94753512
:1053300060935D0670935E0680935F0690936006AF
:1053400080916F06806180936F0680E40E94F61959
:10535000882339F1C0905D06D0905E06E0905F062C
:10536000F090600620E030E040E45FE3C701B60162
:105370000E94E23587FF10C02AE939E949E15EE37E
:10538000C701B6010E94763560935D0670935E0694
:1053900080935F069093600680916F068F7E809366
:1053A0006F0684E00E94EB19882381F180916F06DB
:1053B00083FD14C080917606882309F430C420E070
:1053C00030E0A9016091590670915A0680915B0600
:1053D00090915C060E94273787FD21C48AE999E9EC
:1053E000A9E9BFEB8093590690935A06A0935B06F8
:1053F000B0935C0680916F06877F8F7D80936F06E8
:105400001092760689E59BE00E94791610916F064E
:1054100013FD2BC088E00E94EB19882331F1106244
:1054200010936F0687E29BE00E94791680916F06C9
:1054300084FDF9C380E090E0A0ECBFE380935D06BB
:1054400090935E06A0935F06B093600686E696E6AC
:10545000A6EABFE38093590690935A06A0935B0691
:10546000B0935C0688E0809371068091770688236C
:1054700061F180916F0683FF23C084E00E94F619DA
:1054800090916F06811102C097FF1AC04AE959E94D
:1054900069E97FEB4093590650935A0660935B0687
:1054A00070935C0697FD04C089E59BE00E94791625
:1054B00080916F06877F8F7D80936F0610927606AE
:1054C0008091770681508093770680916F0683FBE9
:1054D000222720F99AE083FD05C090917606992352
:1054E00019F091509093760685FF0CC0222351F05D
:1054F00090917106915090937106911103C08F7D28
:1055000080936F066091590670915A0680915B06F0
:1055100090915C062091750620FD8AC320E030E062
:10552000A9010E94E23587FF09C084E00E94F619B4
:1055300025EC30E240E35DE38111C0C310916F06BA
:1055400013FF3AC015FD38C020E030E040E45FE3CF
:1055500060915D0670915E0680915F069091600695
:105560000E942737181664F480E090E0A0E4BFE3BF
:1055700080935D0690935E06A0935F06B0936006ED
:1055800020E030E040E45FEB60915D0670915E06E4
:1055900080915F06909160060E94E23587FF0CC003
:1055A00080E090E0A0E4BFEB80935D0690935E0600
:1055B000A0935F06B093600610FD16C029E23CE59B
:1055C0004FE85DE36091590670915A0680915B0641
:1055D00090915C060E9476356093590670935A0646
:1055E00080935B0690935C0620915D0630915E0689
:1055F00040915F0650916006609165067091660665
:1056000080916706909168060E9476350E94E73582
:105610007B876A87409061065090620660906306BF
:1056200070906406C0905906D0905A06E0905B06D0
:10563000F0905C06A7019601C301B2010E94763585
:105640000E94E7354B0120E030E0A901C701B60117
:105650000E94273718160CF010C4C301B2010E9433
:105660005A360E94E7358B01F12C092C000CAA0850
:10567000BB08409065065090660660906706709083
:105680006806B801012E000C880B990B0E941F368A
:105690006A8B7B8B8C8B9D8BC501B4010E941F365E
:1056A00020E030E040E85FE30E9476359B01AC01EA
:1056B0006A897B898C899D890E94E23518160CF4D1
:1056C00085C4E02E5CE0352E300EC301B2010E948D
:1056D0005A3620E030E040EC50E40E9476350E94DB
:1056E000E735CB01632D0E949A13811117C0609199
:1056F00065067091660680916706909168060E9423
:105700005A3620E030E040E151E40E9476350E94B4
:10571000E735CB01632D0E949A138111FE886FE05B
:10572000E60E60916506709166068091670690911D
:1057300068060E945A3620E030E040E850E40E94BB
:1057400076350E94E735CB016E2D0E9449138111F9
:10575000D5C260916506709166068091670690914A
:1057600068060E945A3620E030E040E351E40E948F
:1057700076350E94E735CB016E2D0E9449138111C9
:10578000BDC280916F06877F80936F060F5F1F4FAA
:1057900070CF282F2F70233009F452C008F04CC06E
:1057A000223009F001CC9A3008F4FECBC89CF001FD
:1057B000C99CF00D1124E05DF94F9081892F97FB72
:1057C00087F980588083F1011382F101B680B39488
:1057D000B682C89C8001C99C100D1124005D194F30
:1057E000D801DC908D2D8F70833009F479C198F544
:1057F000823009F0D9CBC89CF001C99CF00D11246E
:10580000E05DF94F2081D1018D919C911197129605
:105810006C91615F26FF3EC104960E944913882364
:1058200009F426C1C89CF001C99CF00D1124E05D6B
:10583000F94F80818F7BF7CA263008F0B5CBB3CF04
:105840009A3008F4B1CB982F87FB97F99058908342
:1058500013961C92BACF843009F4A1C0853009F0A8
:10586000A3CBBAE0BB1508F09FCBE080F180B70175
:105870000F2C000C880B990B0E941F369B01AC016A
:105880006091650670916606809167069091680642
:105890000E94E23587FF1DC16894D6F8D801DC92DA
:1058A00090E080E0C89CF001C99CF00D1124EF5CF1
:1058B000F94F208120FD5EC0F4E0EF0EF11C8E193F
:1058C0009F0921E030E01816190614F030E020E0BE
:1058D000892F881F8827881FA901481B5109CA01E1
:1058E00047E0489F9001499F300D1124D101129645
:1058F0004C91485F90E080E0582FA89EF001A99E4F
:10590000F00D1124E551FA4F608160FD05C001964C
:105910008430910589F754E0A59EF0011124DF0140
:10592000AD51BA4F6FE87BE01A967C936E9319974E
:10593000E551FA4F808116961C9216978D7F8E7FC7
:10594000808373E017967C93179764E0EE0CFF1C3E
:105950006A95E1F71196FC92EE9280E1489FA001D2
:10596000112413965C934E93129714962C931497CC
:1059700015961C92C89CF001C99CF00D1124E05DA5
:10598000F94F8181816081839CE09B1508F00CCBED
:10599000D10116961C9281818E7F818305CBBAE05E
:1059A000BB1508F028CF1682828190E00D9640E466
:1059B00050E0481B590B21E030E01416150614F096
:1059C00030E020E0452F441F4427441F241B3109A9
:1059D000F5E0F29FA001F39F500D1124D1012D910C
:1059E0003C912C5F3F4F70E060E0E62FA69ED00117
:1059F000A79EB00D1124A551BA4FFC91F0FD06C031
:105A00006F5F7F4F6430710581F7E4E0AE9EF00177
:105A10001124DF01AD51BA4F6FE87BE01A967C93F9
:105A20006E931997E551FA4F508116961C9216976E
:105A30005D7F5E7F508373E017967C93179774E0C9
:105A4000220F331F7A95E1F711963C932E93E4E0F1
:105A5000880F991FEA95E1F7807F9F7013969C93BA
:105A60008E93129714961C92149715964C93C3CE4E
:105A7000F1016281675F8081918104960E944913E0
:105A80008111D0CED1018D919C91119701978D9369
:105A90009C938ACA0B960E944913882351F0C89C94
:105AA000F001C99CF00D1124E05DF94F8081806404
:105AB000BAC9F1016281675F808191810B960E9472
:105AC00049138111ECCFD1018D919C9111970196D1
:105AD000DECFE894D6F8F801D08280E094E0E2CE00
